{
  "contractName": "AppleShop",
  "abi": [
    {
      "inputs": [],
      "name": "buyApple",
      "outputs": [],
      "stateMutability": "payable",
      "type": "function",
      "payable": true
    },
    {
      "inputs": [
        {
          "internalType": "uint256",
          "name": "applePrice",
          "type": "uint256"
        }
      ],
      "name": "sellApple",
      "outputs": [],
      "stateMutability": "payable",
      "type": "function",
      "payable": true
    },
    {
      "inputs": [],
      "name": "getApple",
      "outputs": [
        {
          "internalType": "uint256",
          "name": "",
          "type": "uint256"
        }
      ],
      "stateMutability": "view",
      "type": "function",
      "constant": true
    }
  ],
  "bytecode": "0x608060405234801561001057600080fd5b50610372806100206000396000f3fe6080604052600436106100345760003560e01c8063143fe5a514610039578063284131c714610064578063db54b74c1461006e575b600080fd5b34801561004557600080fd5b5061004e61008a565b60405161005b919061021e565b60405180910390f35b61006c6100d0565b005b6100886004803603810190610083919061026a565b610128565b005b60008060003373ffffffffffffffffffffffffffffffffffffffff1673ffffffffffffffffffffffffffffffffffffffff16815260200190815260200160002054905090565b60016000803373ffffffffffffffffffffffffffffffffffffffff1673ffffffffffffffffffffffffffffffffffffffff168152602001908152602001600020600082825461011f91906102c6565b92505081905550565b6000816000803373ffffffffffffffffffffffffffffffffffffffff1673ffffffffffffffffffffffffffffffffffffffff1681526020019081526020016000205461017491906102fa565b905060008060003373ffffffffffffffffffffffffffffffffffffffff1673ffffffffffffffffffffffffffffffffffffffff168152602001908152602001600020819055503373ffffffffffffffffffffffffffffffffffffffff166108fc829081150290604051600060405180830381858888f19350505050158015610200573d6000803e3d6000fd5b505050565b6000819050919050565b61021881610205565b82525050565b6000602082019050610233600083018461020f565b92915050565b600080fd5b61024781610205565b811461025257600080fd5b50565b6000813590506102648161023e565b92915050565b6000602082840312156102805761027f610239565b5b600061028e84828501610255565b91505092915050565b7f4e487b7100000000000000000000000000000000000000000000000000000000600052601160045260246000fd5b60006102d182610205565b91506102dc83610205565b92508282019050808211156102f4576102f3610297565b5b92915050565b600061030582610205565b915061031083610205565b925082820261031e81610205565b9150828204841483151761033557610334610297565b5b509291505056fea264697066735822122098d26fe41cd882c725365fe3d8bb106346a93d4e09e9358aac0384b34758190c64736f6c63430008110033",
  "immutableReferences": {},
  "source": "//SPDX-License-Identifier: MIT\r\npragma solidity ^0.8.17;\r\n\r\ncontract AppleShop{\r\n    // address  , uint  myApple  \r\n    mapping(address => uint) myApple;\r\n\r\n    // payable    CA ETH   .\r\n    // .  value ETH   .\r\n\r\n    function buyApple() public payable{\r\n        myApple[msg.sender] +=1;\r\n    }\r\n\r\n    function sellApple(uint applePrice) public payable{\r\n        uint256 refund = myApple[msg.sender] * applePrice;\r\n        myApple[msg.sender] = 0;\r\n        // payable    \r\n        //     \r\n        //    \r\n\r\n        payable(msg.sender).transfer(refund);\r\n    }\r\n\r\n    //    \r\n    function getApple() view public returns (uint){\r\n        return myApple[msg.sender];\r\n    }\r\n}",
  "sourcePath": "C:\\Users\\KGA_018\\Desktop\\1130\\contracts\\AppleShop.sol",
  "compiler": {
    "name": "solc",
    "version": "0.8.17+commit.8df45f5f.Emscripten.clang"
  },
  "schemaVersion": "3.4.11",
  "updatedAt": "2022-11-30T02:08:32.193Z",
  "networkType": "ethereum",
  "devdoc": {
    "kind": "dev",
    "methods": {},
    "version": 1
  },
  "userdoc": {
    "kind": "user",
    "methods": {},
    "version": 1
  }
}